:020000040800F2
:1000000030830220E101000801530008AF500008CE
:10001000FD520008CD1D000891720008000000008C
:100020000000000000000000000000005171000806
:10003000C9200008000000000353000853710008A5
:10004000FB010008FB010008FB010008FB010008A0
:10005000FB010008FB010008CD200008FB0100089F
:10006000FB010008FB010008FB010008D91D000886
:10007000FB010008FB010008FB010008FB01000870
:10008000FB010008FB010008851C0008FB010008BB
:10009000FB010008FB010008FB010008FB01000850
:1000A000FB010008FB010008FB010008FB01000840
:1000B000FB010008FB010008FB010008FB01000830
:1000C000FB010008FB010008FB010008FB01000820
:1000D000FB010008FB010008FB010008FB01000810
:1000E000FB010008FB010008FB010008FB01000800
:1000F000FB010008FB010008FB01000800000000F4
:10010000FB0100088D600008FB010008FB010008EE
:10011000FB010008FB010008FB010008FB010008CF
:10012000411F00086920000899200008FB01000811
:10013000FB010008FB010008FB010008FB010008AF
:10014000FB010008B550000815510008FB0100082C
:10015000FB010008FB01000849510008FB010008F1
:10016000FB010008FB010008FB010008FB0100087F
:10017000FB010008FB010008000000000000000077
:10018000FB010008FB010008FB010008FB0100085F
:10019000FB010008FB010008000000000000000057
:1001A0000000000000000000FB010008FB01000847
:1001B000FB010008FB010008FB010008DFF80CD080
:1001C00000F0FEF800480047E9B80008308302203C
:1001D00040BA7047C0BA7047C0BA7047C0BA7047DB
:1001E0000648804706480047FEE7FEE7FEE7FEE7D1
:1001F000FEE7FEE7FEE7FEE7FEE7FEE741720008E6
:10020000BD0100082DE9F05F0546002092469B469F
:1002100088460646814640241BE02846414647461C
:10022000224600F085F853465A46C01A914110D331
:1002300011461846224600F06CF82D1A67EB0108AB
:100240004F4622460120002100F063F817EB000919
:100250004E41201EA4F10104DFDC484631462A4607
:10026000434600F000B830BCBDE8C09F40EA01033F
:100270009B0703D009E008C9121F08C0042AFAD25C
:1002800003E011F8013B00F8013B521EF9D2704720
:10029000D2B201E000F8012B491EFBD270470022C8
:1002A000F6E710B513460A4604461946FFF7F0FF75
:1002B000204610BD00F0004230F000400AD0C10DD1
:1002C00001F56071C0F3160042EA0151C20840070F
:1002D0001143704700200146704701F0004330B4DD
:1002E00021F0004150EA010206D00A0DA2F5607229
:1002F000C1F31301002A02DC30BC00207047440F18
:1003000044EAC104C100E01830BC00EBC25000F068
:100310001FB8202A04DB203A00FA02F100207047BF
:100320009140C2F1200320FA03F319439040704733
:10033000202A04DB203A21FA02F00021704721FA3A
:1003400002F3D040C2F120029140084319467047A1
:100350000029A8BF7047401C490008BF20F00100D9
:10036000704710B4B0FA80FC00FA0CF050EA0104B7
:1003700004BF10BC704749B1CCF1200421FA04F449
:1003800011FA0CF118BF012121430843A3EB0C0122
:10039000CB1D4FEA00614FEA102042BF002010BC85
:1003A000704700EBC35010440029A4BF10BC704735
:1003B000401C490008BF20F0010010BC704700003D
:1003C000064C074D06E0E06840F0010394E80700A2
:1003D00098471034AC42F6D3FFF7F4FE08AD02089C
:1003E00028AD02082DE9FE4F804681EA0300C00FC8
:1003F0000C46009021F0004123F00045B8EB0200CC
:10040000A94105D24046214690461C460B4602466D
:1004100023F00040104347D0270DC7F30A00C3F371
:100420000A510290401A019040286BDAC3F313007E
:1004300040F4801B0098924620B10023D2EB030ABF
:1004400063EB0B0B01985946C0F140025046FFF791
:1004500060FF06460D4650465946019A00F092F953
:1004600010EB08006141002487EA115284EAE77327
:100470001A4340D0009A62B3019A012A4FEA075208
:1004800015DC001B61EB02014FF0004202EA07524B
:10049000CDE90042001C41F5801132462B4600F0A8
:1004A00092F903B000F045B840462146F9E7001B39
:1004B00061EB0201001C41F5801300185B4120181C
:1004C000A2F5001747EB030140EAD570B6196D415C
:1004D00011E06D084FEA360645EAC0754FEA07524B
:1004E000001B61EB0201001C41F5801149084FEA35
:1004F00030000019514132462B4603B000F01CB8C1
:1005000000F052B90098012240000023D0EB020213
:1005100063EBE073009821464FEAE074B8EB00000B
:1005200061EB0401E9E783F000435BE781F0004100
:1005300058E730BCBDE8C08F30BCBDE8C04FFFF706
:10054000DFBF2DE9FE4F81EA030404F0004421F0EF
:10055000004100944FF0000B23F0004350EA0104E7
:100560005ED052EA03045BD0C3F30A54C1F30A55C8
:100570002C44A4F2F3340194A0FB0254C1F3130100
:1005800041F48011C3F3130343F4801301FB0244CD
:1005900000FB034E840A970A44EA815447EA8357D2
:1005A000A4FB076802958D0A05FB07854FEA932C8B
:1005B00004FB0C542705029D4FEA065847EA1637FC
:1005C000B5EB08056EEB070C870E920E47EA811714
:1005D00042EA8312A7FB0201B6EB0B0164EB0004B5
:1005E0002B0D43EA0C335E1844EB1C50DA4651469F
:1005F000E7FB0201C5F313044FEA0B3343EA14533C
:100600004FEA0432019C43EA0603A4F10C0402946D
:10061000009CCDE900B400F0D6F803B000F003B8B8
:1006200000200146F9E730BCBDE8C08F2DE9F04D50
:1006300081EA030404F0004B21F0004514464FF01A
:10064000000A23F0004150EA050220D054EA0102DA
:100650001DD0C5F30A570246C5F31303C1F31300B7
:10066000C1F30A5640F4801543F48013A7EB060843
:10067000101BD64608F2FD3873EB050002D308F1D3
:10068000010801E092185B41B8F1000F03DA002085
:100690000146BDE8F08D00204FF4801106468446E7
:1006A0000EE0171B73EB050705D3121B63EB050365
:1006B00006434CEA010C49084FEA300092185B41AE
:1006C00050EA0107EDD152EA030012D082EA040099
:1006D00083EA0501084305D0101BAB4106D2012275
:1006E000002306E000224FF0004302E06FF0010219
:1006F00053101AEB06004CEB085110EB0A0041EBCB
:100700000B01BDE8F04D00F04FB80EB5C10F80EA07
:10071000E0700844CA07002140F233438DE80E0020
:100720000A460B4600F04FF803B000BD0EB540F28C
:10073000334102910021CDE900110A460B4600F039
:1007400042F803B000BD70B5C1F30A5201F0004594
:100750000024C1F3130140F2FF3341F480119A42A7
:1007600001DA002070BD40F233439A42A2F23342D4
:1007700003DC5242FFF7DCFD00E090402C43F1D057
:10078000404270BD202A06DBCB17203A41FA02F026
:1007900043EAE07306E041FA02F3D040C2F12002DE
:1007A000914008431946704710B5141E73F10004B8
:1007B00008DA401C41F1000192185B411A4301D153
:1007C00020F0010010BD2DE9F04D92469B4611B17D
:1007D000B1FA81F202E0B0FA80F220329046FFF7DF
:1007E00098FD04460F4640EA0A0041EA0B015346D1
:1007F0005A46084313D0114653EA010019D0C8F1F4
:1008000040025046FFF794FD05460E4650465946B5
:100810004246FFF77EFD084305D0012004E0204654
:100820003946BDE8F08D0020054346EAE0762C43CA
:1008300037430A986305E40AA0EB08000022FD0A8A
:1008400044EA47540A3002D500200146E9E7010591
:1008500010196941DDE9084500196941BDE8F04D0D
:10086000A2E770B58D1810F8014B14F0030201D106
:1008700010F8012B231106D110F8013B03E010F80A
:10088000016B01F8016B521EF9D1ABB110F8012BCD
:1008900004F00C048A1A0C2C03D0A2EB84129B1CCB
:1008A00008E010F8014BA2EB0422F8E712F8014B24
:1008B00001F8014B5B1EF9D5A942D4D3002070BDCD
:1008C000F0B5F1B1002300BF02EB430C32F813E0A6
:1008D000BCF802C02EF0030E2CF0030C50F80E50A2
:1008E00050F80C6000EB0E0400EB0C0740F80E60B3
:1008F00040F80C507E68656802338B4266607D600C
:10090000E2D3F0BD2DE9F04104889846164607462B
:10091000012A0D460CD1E4B3281D214690ED000AB2
:100920000139B1EE400A80ED000A00F10800F5D16E
:10093000FF2C0CDDB4F5806F10DBB4F5805F22D0A6
:10094000B4F5006F11D0B4F5806F17D021E03F2CC3
:1009500010DC102C12D0202C07D01AE0B4F5807FC8
:1009600003D0B4F5007F0ED013E03846294600F0DE
:100970005FF90EE0402C06D0802C0AD1384629467B
:1009800000F08AF805E07A6828462146012300F045
:10099000A3FCB8F1000F04D0B989BA682846FFF764
:1009A0008FFF012E1CD100EE104A002CB8EE400A39
:1009B00008BFBDE8F081B7EE001A81EE000A00BF63
:1009C00095ED001A95ED012A20EE011A22EE402A3B
:1009D00085ED001A85ED012A013C05F10805EFD1EE
:1009E000BDE8F08100224260FF294FF0FF02018044
:1009F0000EDDB1F5806F16DB29D0B1F5805F2BD00D
:100A0000B1F5006F46D142F6A853C0F6010336E0B7
:100A10003F2913DC102924D020293BD142F6C853AA
:100A2000C0F601032BE0B1F5807F1FD0B1F5007F48
:100A300030D142F6E853C0F6010320E040291AD035
:100A4000802927D142F68853C0F6010317E042F609
:100A50007853C0F6010312E042F6D853C0F6010302
:100A60000DE042F69853C0F6010308E042F6B85391
:100A7000C0F6010303E042F6F853C0F60103191D66
:100A800003F108020C331B88126809688381C0E9EE
:100A90000112002250B270472DE9F0472DED028B74
:100AA00003888046084601EB830AD8F80420002119
:100AB000B1EBD30F4FEA530900F0AB80D9080AEB32
:100AC000890C00EB890E0027C4190AEB070594ED89
:100AD000000A95ED003A94ED011A95ED014A0EEBEE
:100AE00007030CEB070694ED022A95ED025A70EE0F
:100AF000035A93ED006AD6ED001AD6ED012AD6ED21
:100B0000023AD6ED034AC4ED005A71EE045A93ED51
:100B1000017AC4ED015A72EE055AD3ED020AC4ED12
:100B2000025AD4ED035AD5ED036A31EE441A35EE7C
:100B3000A68A36EE214AD3ED037A84ED038A83ED4B
:100B4000004A37EE224A83ED014A30EEA34A83ED94
:100B5000024A37EEA44A83ED034AD31931EEC64A5E
:100B600033EEE06AD3ED000AD3ED011A30EE430A0A
:100B700032EE452A32EEC75A60EE202A61EE213A63
:100B800021EE201A20EE210A31EE400A85ED010AFD
:100B900024EE210A25EE211A25EE205A72EEA32A10
:100BA00024EE204A30EE450AC5ED002A86ED000A03
:100BB00034EE010A86ED010A93ED020A93ED031A61
:100BC00035EEE63A22EE004A23EE015A23EE003AD1
:100BD00022EE012A34EEE77A33EE422A85ED032A2B
:100BE00026EE012A27EE011A27EE003A26EE000A29
:100BF00034EE054A32EE432A30EE010A013907F19C
:100C0000100785ED024A86ED022A86ED030A7FF47D
:100C10005BAF4946022300F05FFBD8F80420504642
:100C200049460223BDEC028BBDE8F04700F054BBFF
:100C30002DE9F04F81B02DED088B8EB00288034670
:100C4000500801EB800505EB800691ED000A91ED5F
:100C5000011A96ED002A96ED013A04935B6806EBC3
:100C6000800730EE024A30EE420A31EE032A31EEBE
:100C7000431A95ED013A95ED005A0593930897EDC7
:100C8000017AD7ED000A029374EE452A72EE433AD8
:100C900034EE054A32EE032A6FF0010334EE204AA7
:100CA00032EE072A03EB920230EE036A71EE451A28
:100CB00030EE430A31EE051A81ED004A0A9181EDCA
:100CC000012A510836EE476A71EEA01A72EEE02A48
:100CD00073EEC73A30EE070A31EE601A00950196BE
:100CE00003970D91C10085ED006AC5ED011AC6EDAF
:100CF000002AC6ED013A87ED000A87ED011A0C9132
:100D000000EB40016FF007036FF003074FEA800E1E
:100D100007EBC00B07EB800A03EB001903EB810222
:100D20008C000020002500210B9100BF0A9E059B2E
:100D300007900695089406EB04080C9C311806EB06
:100D4000040C06EB0E0491ED020A9CED022AD4ED90
:100D5000020A30EE026AD8ED022A36EE204A34EE5C
:100D6000224A91ED031A9CED033AD4ED031AD8ED13
:100D7000033A81ED024A94ED034A31EE037A98ED8D
:100D8000035A37EE044ACDF824E034EE054A81EDEB
:100D9000034A0B9930EE420A31EE431A30EE212A13
:100DA00003EB010E32EE634A31EE602A0D9932EE0A
:100DB000225A36EE602A37EE613A30EE610A31EEA1
:100DC000201A1F18581932EE622A33EE633A30EEB9
:100DD000230A002931EE621A00F0CC800A998E189D
:100DE00001EB0A0301EB0905594493ED007AD6EDB6
:100DF000010AD1ED003A77EE202AD5ED014A72EED4
:100E0000A35A75EEA45A13ED016AD6ED001A51EDFE
:100E1000016AD5ED007AC3ED005A11ED018A76EE34
:100E2000215A95ED009A35EE888A38EE098A03ED4D
:100E3000018A97ED028A97ED039A24EE08AA25EE1F
:100E400009BA25EE085A24EE094A35EE444A37EE2F
:100E5000605A84ED034A36EE614A35EE666A33EE37
:100E6000E47A36EE276A74EE070A66EE091A20EE77
:100E7000899A60EE880A26EE086A3AEE0BAA71EEAD
:100E8000E00A36EE096A84ED02AAC1ED000A01ED1E
:100E9000016A90ED046AD0ED050A62EE061A23EEAF
:100EA000208A23EE063A22EE202A33EE422A8CEDE7
:100EB000032A32EEE32A35EEE63A71EE881A33EE73
:100EC000673A32EE642A0D98CCED021A62EE461AA9
:100ED00023EE066A23EE203A22EE202A31EEC33AB0
:100EE00032EE462A013886ED013A86ED002A0D9051
:100EF0009EED062A9EED073A0C9820EE026A61EEFE
:100F0000030A21EE021A20EE030A083031EE400AED
:100F100037EEE61ADDF824E00C9088ED030A37EE90
:100F2000440A31EE451A0B9821EE034A20EE033AAB
:100F300020EE020A36EE206A21EE021A34EE400A52
:100F4000183088ED026A85ED010A31EE030A089C2B
:100F50000B9085ED000A069D07980EF1080E0834E7
:100F600010350830A9F10809083AABF1080BAAF1CD
:100F7000080ADBE697ED026A97ED037A64EE060A4B
:100F800065EE071A25EE065A24EE074A30EEA16AEE
:100F900035EE444A84ED026A84ED034A90ED044A3A
:100FA00090ED055A22EE046A23EE057A23EE043A08
:100FB00022EE052A36EE074A33EE422A8CED024A2B
:100FC0008CED032A9EED062A9EED073A029D20EE47
:100FD000024A21EE035A21EE021A20EE030A0A9871
:100FE000059A34EE052A31EE400A2946042388ED9D
:100FF000022A88ED030A00F06FF9049C00986268E9
:101000002946042300F068F9626801982946042300
:1010100000F062F962680398294604230EB0BDEC23
:10102000088B01B000F002B800F056B930BCBDE842
:10103000C04FFFF7F9BF00002DE9F04381B02DED5F
:10104000028B0C4600219046B1EB920F054674D0FE
:101050004FEA980795ED000A95ED011A20EE000A77
:1010600021EE011A30EE018AB0EE480A06F0ACF922
:10107000B4EE400AF1EE10FA49D684ED000A95ED7F
:10108000020A95ED031A20EE000A21EE011A30EE55
:10109000018AB0EE480A06F097F9B4EE400AF1EE84
:1010A00010FA39D684ED010A95ED040A95ED051A7A
:1010B00020EE000A21EE011A30EE018AB0EE480A55
:1010C00006F082F9B4EE400AF1EE10FA29D684ED6A
:1010D000020A95ED060A95ED071A20EE000A21EEA8
:1010E000011A30EE018AB0EE480A05F1200904F138
:1010F000100606F069F9B4EE400AF1EE10FA15D6C2
:1011000084ED030A013F4D463446A3D113E0B0EE0F
:10111000480A06F059F9B0E7B0EE480A06F054F96B
:10112000C0E7B0EE480A06F04FF9D0E7B0EE480A43
:1011300006F04AF9E4E734464D4618F0030620D09D
:1011400095ED000A95ED011A20EE000A21EE011A34
:1011500030EE018AB0EE480A271D06F035F9B4EEEC
:10116000400AF1EE10FA07D684ED000A013E05F1BF
:1011700008053C46E4D104E0B0EE480A06F024F944
:10118000F2E7BDEC028B01B0BDE8F083F0B590ED65
:10119000000A4C1E4FF0000CBCEB940F00F1040E43
:1011A0003BD001272646A50867F301064FF0000C47
:1011B000042700BF9EED001A9EED012A9EED023A23
:1011C000B4EE410A9EED034AF1EE10FABCBFB0EE58
:1011D000410AA7F1030CB4EE420AF1EE10FABCBFCB
:1011E000B0EE420AA7F1020CB4EE430AF1EE10FA97
:1011F000BCBFB0EE430AA7F1010CB4EE440AF1EE15
:1012000010FABCBFB0EE440ABC46013D07F104072A
:101210000EF1100ECED100EB860E14F003000ED0AE
:10122000404200BFBEEC011AB4EE410AF1EE10FAE2
:10123000BCBFB0EE410A01EB000C0130F2D382EDED
:10124000000AC3F800C0F0BDB0B50025B5EB930FA0
:1012500031D04FEA930C00BF90ED000A91ED001AD7
:1012600000F1100E20EE010A82ED000A90ED010A55
:1012700091ED011A01F1100420EE010A82ED010A3C
:1012800090ED020A91ED021A02F1100520EE010A1A
:1012900082ED020A90ED030A91ED031ABCF1010CF4
:1012A00020EE010A82ED030A70462A462146D3D178
:1012B00021462A46704613F0030308BFB0BD00BFA5
:1012C000B0EC010AB1EC011A013B20EE010AA2ECDC
:1012D000010AF5D1B0BD00002DE9F04F81B02DED30
:1012E000108BA0B0DFED04CA00900430CDE90232CB
:1012F0000190CDE91E1101E0F304353F1F9A4FF034
:10130000000AD308DF00A7EBD200C0001D904FEA0F
:10131000C20C03EB430503EB8302580106931E0145
:10132000019B2C014FEAC20EED00CDE90C0ECDE978
:101330000A5600BF0A9D191803EB05091D9D03EB12
:101340000E0003EB070810ED014A86469A1918199A
:1013500003EB050B13ED011A11ED012A18ED013A0B
:1013600012ED017A50ED010A59ED011A5BED012AE7
:1013700031EE025A33EE046A77EE203A71EEA24A59
:1013800075EE235A76EE246A75EEA67A43ED017A5D
:1013900075EEE65AD8ED007A9EED008A99ED00BA16
:1013A0009BED00CAD3ED006A41ED015AD1ED005A20
:1013B00092ED009A90ED00AA37EE88EA7BEE0C8A57
:1013C00036EEA5DA39EE0AFA35EE635A36EE646A7D
:1013D0007EEE684A7DEE0F9A7DEE4F3A35EE24DAC6
:1013E00035EE645A7EEE28AA02ED01DA33EEC6DA53
:1013F00000ED015A36EE235A31EE421A33EE442AFA
:1014000037EE603A31EEE24A37EEC86A7BEE4C0ABC
:1014100079EEAABA79EEEA9A72EE441A32EE042A0A
:1014200036EE604A36EE206AC3ED00BAC1ED009A8E
:1014300082ED00DA80ED005A36EEE55A39EE4A7A4E
:1014400061EEAC1A22EE2C2A24EE2C4A26EE2C6AEF
:1014500071EE210A73EE022A75EE043A77EE064A1F
:1014600031EE611A33EE422A35EE443A37EE464AFF
:101470002646744670EEA45A70EEE40A31EE045A21
:101480001F9A1E9948ED015A73EEE25A4BED010A7C
:1014900072EEA30A204604ED015A33EE425ADDF8FB
:1014A00034E0C8ED005ACBED000A84ED005A0C98E8
:1014B00031EE441A34460B9E924409ED011A32EE85
:1014C000031A8A45634489ED001AFFF433AF1F986D
:1014D0004028C0F0D4810298009E80B20590069802
:1014E000CDE90E4CC0EBC000C000002401251097D0
:1014F000049000BF0598039B044403EBC40191EDE5
:10150000000A03EB04128DED1D0A92ED000A04EBB4
:10151000440203EBC2008DED1C0A90ED000A03EBC0
:1015200044118DED1B0A91ED000A04EB8401C80003
:1015300003EBC1018DED1A0A91ED000A4FEAC20AD0
:101540004FEA021B03EB02128DED190A92ED000A1D
:10155000C4EBC4024FEAC40CD10003EBC2028DED10
:10156000180A92ED000A0CF104024FEA041E1A4414
:101570008DED170A92ED000A0EF104021A448DED6A
:10158000160A92ED000A0AF104024FEA44191A44BD
:101590008DED150A92ED000A09F104021A448DED51
:1015A000140A92ED000A043018448DED130A90EDF0
:1015B000000A0BF1040018448DED120A90ED000AA8
:1015C000081D18440994D0ED006A0796B4460895A2
:1015D0002B46DDE90C54DDE90A76DDF810808DED4F
:1015E000110A00BF10980E990CEB05090CEB000EC8
:1015F0000CEB04000CEB060B0CEB010A0CEB0702E6
:101600000CEB0801DCED027A99ED028A9EED029A5C
:1016100090ED02AA9BED02DA9AED02EA92ED02FA4F
:10162000D1ED028A37EE88BA39EE0ACA7DEE0E9AFB
:101630007FEE28AA7BEE29BAF0EE6C3A7CEE2ACA3D
:101640007BEEACDACCED02DA7BEEECBADCED03CA71
:10165000D9ED03DADEED03EAD0ED03FA9BED030AE0
:101660009AED031A92ED032A91ED033A3CEEAD4A4E
:101670003EEEAF5A30EE016A32EE037A74EE060A9D
:1016800075EE071ADDED1A4ADDED135A70EEA12A48
:1016900070EEE10ACCED032A64EEAB1A65EEA02AE7
:1016A00071EEA21A64EEA00A65EEAB2A70EEE20AB1
:1016B000C9ED021AC9ED030A7BEE690A7CEE6A1ACB
:1016C00034EE464A35EE475A9DED1CCADDED154A0B
:1016D00030EE856A34EE617A6CEE062A24EE87BA23
:1016E0002CEE077A24EE866A30EEC55A31EE844A33
:1016F000DDED180ADDED111A37EE466A8BED036A4F
:1017000020EE856A21EE847A20EE844A21EE855A05
:1017100037EE066A34EE454A39EE4A5A3FEE687AA9
:101720007EEEEF1A30EE410A32EE431A7BEE222AA9
:1017300035EE472A35EE073A31EEC15A31EE811ABD
:10174000CBED022A8AED026A8AED034A37EEC84AD7
:101750003DEE4E6A7CEEED0A22EE232A23EE233A7A
:1017600025EE235A21EE231AF0EE63CA34EE027AF4
:1017700076EE031A70EE852A70EE017ADDED1D3AE1
:10178000DDED164A37EE278A32EEE19A23EE88AA7B
:1017900024EE89BA23EE899ADDED173A37EE677A9F
:1017A00071EEA21A63EE872A66EEA17A63EEA11AA1
:1017B00026EE877A24EE888A31EEC77A34EE422A02
:1017C00036EE433A30EEC54A30EE410ADDED190AF5
:1017D000DDED121A39EE488A32EE001A34EE435A21
:1017E0008EED038A81ED037A20EE816A21EE857AFF
:1017F00020EE855A21EE811A3AEE0BAA72EEA72A44
:1018000036EE076A35EE411A8EED02AAC1ED022AC4
:1018100080ED026A80ED031A1F9833EE041A034428
:101820001E989DED1B4A9DED145A32EE400A8342EC
:101830000F9824EE002A25EE013A24EE011A25EE37
:10184000000A32EE032A31EE400A844482ED022A75
:1018500082ED030AFFF4C6AE089D0698079E013587
:10186000099C854206F10806FFF444AE0298C000C8
:1018700002901F983F2806981F903FF63FAD20B07A
:1018800000F003B801B000F006B8BDEC088BBDEC69
:1018900008CBFFF7F7BF30BCBDE8C08F10B578B1FB
:1018A0004FF400710446FFF79DF850B94FF4806083
:1018B000208242F68850C0F602006061002000E0FD
:1018C000FF2040B210BD10B568B140210446FFF7BB
:1018D00089F848B98020208243F68850C0F602007B
:1018E0006061002000E0FF2040B210BD10B578B16B
:1018F0004FF480610446FFF775F850B94FF400606B
:10190000208243F68870C0F602006061002000E08B
:10191000FF2040B210BD10B570B180210446FFF722
:1019200061F850B94FF48070208245F68870C0F697
:1019300002006061002000E0FF2040B210BD10B541
:1019400068B110210446FFF74DF848B920202082E5
:1019500046F28830C0F602006061002000E0FF20FF
:1019600040B210BD10B578B14FF400610446FFF7E6
:1019700039F850B94FF48050208246F20840C0F642
:1019800002006061002000E0FF2040B210BD10B5F1
:1019900078B14FF480710446FFF724F850B94FF442
:1019A000007020824AF20840C0F602006061002008
:1019B00000E0FF2040B210BD10B568B12021044600
:1019C000FFF710F848B9402020824AF60840C0F6D8
:1019D00002006061002000E0FF2040B210BDF0B5C1
:1019E00081B014460E46054673B12846314622465C
:1019F0001F4600F093F8284621463A46012301B0DD
:101A0000BDE8F040FEF77EBF2846314600220123A4
:101A1000FEF778FF28463146224601B0BDE8F04087
:101A200000F0D6B8B1F5007F0ADA7F2916DC20294C
:101A300029D040293BD141F6B911C0F60001084731
:101A4000B1F5006F14DAB1F5007F21D0B1F5806FE8
:101A50002DD141F69D01C0F60001084780291CD018
:101A6000B1F5807F23D141F61711C0F60001084778
:101A7000B1F5805F16D0B1F5006F18D141F6ED01D8
:101A8000C0F60001084741F63F11C0F600010847C3
:101A900041F68F11C0F60001084741F6C701C0F6B4
:101AA0000001084741F66511C0F6000108474FF0F4
:101AB000FF3070470023B3EB920F20D0930800BF94
:101AC00090ED001A90ED012A90ED023A90ED034A54
:101AD00021EE001A22EE002A23EE003A24EE004AFC
:101AE00001F1100C103081ED001A81ED012A81ED19
:101AF000023A81ED034A013B6146E1D1614612F0B1
:101B0000030208BF704700BFB0EC011A013A21EE92
:101B1000001AA1EC011AF7D17047000080B591EDD1
:101B2000001A91ED012AD0F814E0008831EE023A53
:101B3000B6EE000A31EE421AB0F1010C23EE003A83
:101B400021EE001A82ED003A82ED011A08BF80BD35
:101B500001F1080301EBCC010EF108000832043159
:101B600011ED011A91ED002A93ED003A93ED014A2F
:101B700090ED005A90ED016A33EE417A72EE040A5C
:101B800067EE051A60EE862A27EE066A31EE031A22
:101B900034EE422A25EE205A31EE611A32EE062A40
:101BA00031EE621A32EE452A21EE001A22EE002AA8
:101BB00082ED001A82ED012ABCF1010C03F1080349
:101BC00000F1080002F10802A1F10801C8D180BDAE
:101BD00091ED000A91ED011A0388406930EE002A68
:101BE00031EE011AA3F1010C32EE013AB6EE000A11
:101BF00032EE411A23EE003A21EE001A00F10803FA
:101C000001F1080001EBCC0182ED003A82ED011AEE
:101C10000832043111ED011A90ED003A91ED002ADD
:101C200090ED014A93ED005A93ED016A31EE437A4B
:101C300072EE040A67EE051A27EE067A31EE031AF1
:101C400034EE422A25EE205A20EE866A31EE211A21
:101C500032EE072A31EE061A32EE452A21EE001A3C
:101C600022EE002A82ED001A82ED012ABCF1010C5D
:101C700003F1080300F1080002F10802A1F10801D4
:101C8000C8D170470948006840F001000749086062
:101C900000BF074800880549B431086003488068E0
:101CA00040F004000149886000BF70470000045004
:101CB000E412002010B504462146024802F0F4FB6D
:101CC00010BD0000387C002010B5044802F0FFFB76
:101CD000042801D0012010BD0020FCE7387C002042
:101CE00010B5002400F014F8012801D0022010BD26
:101CF000064802F0A7FD044634B94FF4804103487A
:101D000002F078FA00B101242046F0E7387C002088
:101D100008B5012000909DF8000008BD2DE9F843AA
:101D200004460D4616461F464FF0000833462A4625
:101D300021460548009702F0C9FE08B14FF001089E
:101D40004046BDE8F8830000387C00207047000062
:101D50002DE9F84304460D4616461F464FF000088D
:101D600033462A4621460548009702F0DFFF08B1B6
:101D70004FF001084046BDE8F8830000387C0020A1
:101D80002DE9F04104460D461646002733462A4603
:101D90002146044803F0F2F800B101273846BDE8B7
:101DA000F0810000387C00200648006840F0010007
:101DB00004490860044800684FF0FF300249086099
:101DC00070470000041300203824065002E0FA2077
:101DD00000F0DAF9FBE7000010B54E48006800F0AB
:101DE000060000287ED04C48006840000521B0FB6A
:101DF000F1F14A48006840F27122504301EB0010B3
:101E0000474908604348006800F00400F0B104202E
:101E1000404948604248006842490968C1F80002E8
:101E200000224048016840480BF0A0F800BF3F483E
:101E300000780028FBD101203C4908703C4800880C
:101E4000401C3B4908800020384908703148006830
:101E500000F00200002858D002202E4948600020DF
:101E60004903486203203349486233480068A8B3F5
:101E700031480068B0F5817F30D92F48006840F2C2
:101E8000FE21884202D22C48006801E040F2FE2088
:101E900029490860224801682248026826480068EB
:101EA00000F5807042F810101E480068224A12683F
:101EB00000EB420100221C480BF058F800BF1B4801
:101EC00000780028FBD101201849087018480088C4
:101ED000401C174908800020144908701148006808
:101EE000164900E014E0884202D101F6040000E047
:101EF00012480C49086008460068064948614803D2
:101F0000006A20F40050490308620120014948603A
:101F100010BD0000000002401C7C00409C15002009
:101F200098150020A815002078690020A61500202B
:101F3000A4150020001000A0A015002020480020BB
:101F40002DE9F04101203B4908603B48006805212C
:101F5000B0FBF1F13948006840F27122504301EBC7
:101F600000183749098808B2FEF736F985B23449B6
:101F7000B1F8031008B2FEF72FF986B23148006CB1
:101F800087B23148C0F800808580C6800781002272
:101F900001462E480AF0EAFF6420B8FBF0F40B205B
:101FA0002B490870C4F307504870C4F30730887099
:101FB000C4F30710C87004F00F00C7F3032141EA0F
:101FC0000010234908714F71280A8871CD71300AB9
:101FD00008724E7200BF1F4800780028FBD1012014
:101FE0001C4908701C480088000A194988721A4860
:101FF0000078C8720020184908801649087000222D
:10200000134916480AF0B2FF154800681549084000
:102010001349086000BF0B48806840F0020009497E
:1020200088600846806840F00050886000BFBDE8C6
:10203000F0810000040402401C7C00409C1500203C
:10204000C812002000000450707B0020E0690020CE
:102050007A7B0020A6150020A4150020806B0020AC
:1020600004540040FFFBFBFF1020074908600748AD
:10207000006807490843054908600648006840F0C1
:102080000200044908607047040402400454004000
:1020900000040600109400404FF480700849086066
:1020A00007482C30006820F0010005492C310860F9
:1020B0000448806820F08000024988607047000072
:1020C000040402400080004070470000FF200C49DB
:1020D00008600C48C06840F20241081A0A490860CA
:1020E00060B94FF08040006A40F400504FF08041EA
:1020F0000862064800680649C1F8100170470000F0
:102100001404014000000240A0150020101100A09E
:10211000001000A003E04FF4FA7000F035F8FAE781
:1021200030B504460D4600222946204600F002F84C
:1021300030BD0000F0B50346012500241148407A67
:1021400001281CDA00200F4E767A0E4FB85538461B
:10215000467A001D40F82630001F467A0830825526
:102160003E46707A461C7E72044604F130000870C8
:102170003A2048702F2088700020C870002528461B
:10218000F0BD00002485002070B5044600F010F971
:1021900006462546681C10B104480068054400BF87
:1021A00000F006F9801BA842FAD370BDDC150020B0
:1021B00078B502460023DAE001269E400D6805EA64
:1021C0000604002C72D04D68022D02D04D68122DED
:1021D00013D1DE0802F1200555F826005D07EE0E4A
:1021E0000F25B540A8435E07F60E0D69B54028439C
:1021F000DE0802F1200545F8260010685E00032580
:10220000B540A8430D7905F003055E00B5402843AD
:1022100010604D68012D08D04D68022D05D04D6825
:10222000112D02D04D68122D13D190685E00032548
:10223000B540A8435E00CD68B54028439060506823
:1022400001259D40A8430D79C5F300159D40284305
:102250005060D0685E000325B540A8435E008D68DD
:10226000B5402843D0604D6805F08055B5F1805FDA
:102270007CD100BF414D2D6E45F001053F4E3566C6
:1022800035462D6E05F00105009500BF00BF4FEAF1
:10229000B6359E0855F826009D072E0F0F25B54030
:1022A000A843B2F1904F02D1002524E05EE0344D06
:1022B000AA4201D101251EE0324DAA4201D10225D8
:1022C00019E0314DAA4201D1032514E02F4DAA4255
:1022D00001D104250FE02E4DAA4201D105250AE0C7
:1022E0002C4DAA4201D1062505E02B4DAA4201D171
:1022F000072500E008259E07360FB5402843274DE7
:102300009E0845F82600264D2868A0434D6805F430
:102310008035B5F5803F00D12043214D28602D1D2B
:102320002868A0434D6805F40035B5F5003F00D19D
:1023300020431B4D2D1D28602D1D2868A0434D688E
:1023400005F48015B5F5801F00D12043144D0835E4
:1023500028602D1D2868A0434D6805F40015B5F5CB
:10236000001F00D120430E4D0C3528605B1C0D680A
:10237000DD40002D7FF420AF78BD0000001002404A
:102380000004004800080048000C00480010004805
:102390000014004800180048001C004808000140D4
:1023A000000401400AB1816100E0816270470000D1
:1023B0000148006870470000D415002003480068F9
:1023C000034909680844014908607047D415002092
:1023D000DC15002010B500240948006840F4807026
:1023E00007490860032000F0AFF8002000F00AF869
:1023F00008B1012401E000F031F8204610BD0000D2
:102400000020024070B50446002511480068D8B18C
:102410000F4800684FF47A71B1FBF0F00D4909687C
:10242000B1FBF0F6304602F01FFE58B9102C07D26F
:1024300000222146501E00F045F80748046004E0E1
:10244000012502E0012500E00125284670BD0000BD
:10245000DC150020E0150020D815002008B500BFCD
:102460000D48006E40F001000B4908660846006EFA
:1024700000F00100009000BF00BF00BF0846806D63
:1024800040F0805088650846806D00F080500090D4
:1024900000BF00BF08BD0000001002400146084612
:1024A00000280DDB00BF00BF00F01F0301229A408F
:1024B00043099B0003F1E023C3F8002100BF00BFE4
:1024C00000BF70472DE9F05F80460D461646002795
:1024D00004F0F8FE074639462A46334601F0070065
:1024E000C0F1070ABAF1040F02D94FF0040A01E063
:1024F000C0F1070AD14600F1040ABAF1070F02D26F
:102500004FF0000A01E0A0F1030AD4464FF0010A9F
:102510000AFA09FAAAF1010A0AEA020A0AFA0CFA04
:102520004FF0010B0BFA0CFBABF1010B0BEA030BA9
:102530004AEA0B042146404604F0CCFE00F000B805
:1025400030BCBDE8C09F000000BF00F00702064B92
:1025500019684FF6FF031940044B0B4343EA02216D
:10256000014B196000BF70470CED00E00000FA0558
:1025700002468ABB4148006800F4C060B0F5806F35
:102580002BD13E488030006820F480703B4BC3F86C
:1025900080001846006820F4C06040F400701860A5
:1025A0003748006832235843364BB0FBF3F0411CE8
:1025B00000E0491E3148406900F48060B0F5806F4A
:1025C00001D10029F5D12D48406900F48060B0F5B3
:1025D000806F51D10320704708E0284880300068A0
:1025E00020F48070254BC3F8800045E0B2F5007FF1
:1025F0003AD12248006800F4C060B0F5806F2AD15B
:102600001E488030006840F480701C4BC3F8800086
:102610001846006820F4C06040F400701860184844
:10262000006832235843174BB0FBF3F0411C00E025
:10263000491E1248406900F48060B0F5806F01D1F6
:102640000029F5D10D48406900F48060B0F5806F35
:1026500012D10320BFE709488030006840F4807041
:10266000064BC3F8800007E00448006820F4C0600F
:1026700040F48060014B18600020ACE7007000401F
:10268000E015002040420F001148006820F480400F
:102690000F4A10600F480068322250430E4AB0FBC8
:1026A000F2F0411C00E0491E0948406900F4007046
:1026B000B0F5007F01D10029F5D10548406900F44B
:1026C0000070B0F5007F01D1032070470020FCE7C7
:1026D00000700040E015002040420F0003480068F1
:1026E00040F48040014908607047000000700040DD
:1026F0000B48006800F4C060B0F5806F02D14FF461
:102700008060704706488030006800F48070B0F543
:10271000807F02D14FF40070F3E70020F1E7000062
:102720000070004070B504460D4654B91048406929
:1027300000F40070B0F5007F0AD1FFF7A5FF38B1B3
:1027400070BD0B484069C0F3402008B9FFF7C6FFD1
:102750000848006820F0040006490860012D01D1F6
:1027600030BF02E040BF20BF20BF00BFE8E700004D
:102770000070004010ED00E02DE9F04707464FF0F3
:10278000000AB7F5003F2DD1FD48006800F4407401
:10279000B4F5807F06D0B4F5007F0CD0B4F5407F4F
:1027A0001ED112E0F648006800F00200022801D1B4
:1027B0004FF4004A15E0F248001D006800F00200E6
:1027C000022801D14FF4FA4A0BE0ED489038006836
:1027D00000F40030B0F5003F01D1DFF8A8A300E01D
:1027E00000BFEEE3E6489038C06800F00309B9F195
:1027F000010F06D0B9F1020F23D0B9F1030F38D180
:102800002BE0DF489038006800F00200022816D163
:10281000DB489038006800F0080028B1D8489038AC
:10282000006800F0F00005E0D548001D006800F4E5
:10283000706000090009D44951F8205000E00025DB
:1028400019E0CF489038006800F48060B0F5806FE0
:1028500001D1CE4D00E000250DE0C9489038006858
:1028600000F40030B0F5003F01D1C94D00E0002573
:1028700001E0002500BF00BFB7F5806F6FD01ADC04
:10288000202F6DD00CDC042F6BD004DC012F69D01D
:10289000022F68D1DEE1082F71D0102FF9D15DE24F
:1028A000402F6DD0802F6DD0B7F5807F6BD0B7F5FE
:1028B000007FEED1B5E3B7F5802F2ED011DCB7F550
:1028C000005F29D006DCB7F5006F17D0B7F5805F41
:1028D000DFD11AE0B7F5804F7DD0B7F5803FD8D172
:1028E000C7E2B7F5002F77D0B7F5801F75D0B7F5E1
:1028F000001F73D0B7F1807FCBD1FDE329464FF4A1
:10290000006002F0FFFC824627E229464FF4805027
:1029100002F0F8FC8246F7E700BF994808380068E3
:1029200000F040646CB3B4F1806F5BD0B4F1006F21
:102930002AD0B4F1406F7CD191489038006800F003
:10294000020002281AD18E489038006800F0080072
:1029500050B18B489038006800F0F0000AE095E331
:102960002BE2A3E14AE1F6E38548001D006800F48C
:10297000706000090009844951F820A068E0C1E1B5
:10298000BFE25AE0DFE208E37D489038006800F0DB
:102990000070B0F1007F24D179489038C06800F40D
:1029A0008010B0F5801F1CD175489038C068C0F306
:1029B000062605FB06F072499039C968C1F3031178
:1029C000491CB0FBF1F56E489038C068C0F3415027
:1029D000401C400003E01FE23CE001E357E2B5FB8E
:1029E000F0FA35E066489038006800F00060B0F119
:1029F000006F21D162489038006900F48010B0F572
:102A0000801F19D15E4890380069C0F3062605FB87
:102A100006F05B4990390969C1F30311491CB0FB09
:102A2000F1F5574890380069C0F34150401C400010
:102A300000E00CE0B5FBF0FA0AE05148083000680D
:102A400000F00200022801D1DFF848A100E000BF39
:102A500000BFAEE34A480C30006800F48040B0F597
:102A6000804F34D146489038006800F00070B0F1D3
:102A7000007F2BD142489038C06800F48030B0F518
:102A8000803F23D13E489038C068C0F3062605FB3E
:102A900006F03B499039C968C1F30311491CB0FBEA
:102AA000F1F537489038C0684FEAD068B8F1000FA8
:102AB0000AD133489038C06800F4003010B14FF0AC
:102AC000110801E04FF00708B5FBF8FA95E02C4833
:102AD0000838006800F04064F4B3B4F1806F5BD054
:102AE000B4F1006F20D0B4F1406F79D12448903810
:102AF000006800F00200022815D1214890380068D3
:102B000000F0080028B11E489038006800F0F0007E
:102B100005E01B48001D006800F470600009000912
:102B2000194951F820A067E015489038006800F076
:102B30000070B0F1007F21D111489038C06800F4D6
:102B40008010B0F5801F19D10D489038C068C0F3CF
:102B5000062605FB06F000E043E009499039C96804
:102B6000C1F30311491CB0FBF1F505489038C0686A
:102B7000C0F34150401C4000B5FBF0FA3CE00000BF
:102B80009010024090D0030010D300080024F400FD
:102B900000127A00006CDC02FA48006800F0006065
:102BA000B0F1006F1BD1F748006900F48010B0F558
:102BB000801F14D1F3480069C0F3062605FB06F018
:102BC000F0490969C1F30311491CB0FBF1F5ED4867
:102BD0000069C0F34150401C4000B5FBF0FA0BE027
:102BE00009E0E8489830006800F00200022801D1AE
:102BF000DFF894A300E000BF00BFDAE2E1488830CC
:102C0000006800F0030434B1012C08D0022C0AD073
:102C1000032C1CD111E000F0D5FE824618E000F034
:102C2000E3FE824614E0D748006800F48060B0F507
:102C3000806F01D1DFF854A30AE0D24890300068D9
:102C400000F00200022801D14FF4004A00E000BF6A
:102C500000BFAEE2CB488830006800F00C0434B10D
:102C6000042C08D0082C0AD00C2C1CD111E000F048
:102C700097FE824618E000F0B7FE824614E0C14895
:102C8000006800F48060B0F5806F01D1DFF8FCA22D
:102C90000AE0BC489030006800F00200022801D130
:102CA0004FF4004A00E000BF00BF82E2B548883020
:102CB000006800F0300434B1102C08D0202C0AD069
:102CC000302C1CD111E000F06BFE824618E000F0C1
:102CD0008BFE824614E0AB48006800F48060B0F5DB
:102CE000806F01D1DFF8A4A20AE0A6489030006806
:102CF00000F00200022801D14FF4004A00E000BFBA
:102D000000BF56E29F488830006800F0C00434B12C
:102D1000402C08D0802C0AD0C02C1CD111E000F02F
:102D20003FFE824618E000F05FFE824614E09548C0
:102D3000006800F48060B0F5806F01D1DFF84CA22C
:102D40000AE090489030006800F00200022801D1AB
:102D50004FF4004A00E000BF00BF2AE289488830F3
:102D6000006800F440744CB1B4F5807F0AD0B4F52B
:102D7000007F0BD0B4F5407F1CD111E000F010FEB5
:102D8000824618E000F030FE824614E07D4800687C
:102D900000F48060B0F5806F01D1DFF8F0A10AE0A7
:102DA00078489030006800F00200022801D14FF40A
:102DB000004A00E000BF00BFFBE1724888300068B5
:102DC00000F440644CB1B4F5806F0AD0B4F5006FE4
:102DD0000BD0B4F5406F1CD111E000F0E1FD82464C
:102DE00018E000F001FE824614E06648006800F436
:102DF0008060B0F5806F01D1DFF890A10AE06148F2
:102E00009030006800F00200022801D14FF4004A1F
:102E100000E000BF00BFCCE15A488830006800F0F5
:102E20004054B4F1805F06D0B4F1405F1ED100F091
:102E3000DBFD82461BE05348006900F08070A0B1C2
:102E400050480069C0F3062605FB06F04D490969A4
:102E5000C1F30311491CB0FBF1F54A480069C0F306
:102E60004160401C4000B5FBF0FA00E000BF00BF2D
:102E70009FE144489C30006800F004041CB900F055
:102E8000A1FD824602E000F0AFFD824691E13D489F
:102E90009C30006800F0180424B1082C24D0102CB9
:102EA0002CD106E029464FF4006002F02BFA82464E
:102EB00025E03448006800F00200022813D13148B0
:102EC000006800F0080020B12E48006800F0F00013
:102ED00005E02C489430006800F470600009000997
:102EE0002B4951F820A00AE02648006800F48060D1
:102EF000B0F5806F01D1DFF894A000E000BF00BF03
:102F000057E120488830006800F4405434B1B4F5EB
:102F1000805F07D0B4F5005F12D107E000F040FDFC
:102F200082460EE000F060FD82460AE01548006827
:102F300000F48060B0F5806F01D1DFF850A000E0B0
:102F400000BF00BF35E10F488830006800F44044FE
:102F500034B1B4F5804F07D0B4F5004F1AD107E073
:102F600000F01EFD824616E000F03EFD824612E0B3
:102F70000448006800F48060B0F5806F01D1DFF88C
:102F80000CA008E000100240006CDC020024F400F9
:102F900010D3000800BF00BF0BE18848006800F4B0
:102FA000403434B1B4F5803F07D0B4F5003F14D1BC
:102FB00008E000F0F5FC824610E000F015FD8246C6
:102FC0000CE0F7E07D488838006800F48060B0F5D8
:102FD000806F01D1DFF8E8A100E000BF00BFE8E0AA
:102FE00076481430006800F0030424B1012C06D0A8
:102FF000022C13D107E000F0D3FC82460FE000F072
:10300000F3FC82460BE06D488838006800F480606D
:10301000B0F5806F01D1DFF8A8A100E000BF00BFCC
:10302000C7E06648006800F440244CB1B4F5802F36
:103030000AD0B4F5002F11D0B4F5402F23D118E0F9
:1030400000F0AEFC82461FE05C480C30006800F0E7
:103050000200022801D14FF4FA4A15E05748883897
:10306000006800F48060B0F5806F01D1DFF850A1F6
:103070000AE052480830006800F00200022801D13E
:103080004FF4004A00E000BF00BF92E04B480068E8
:1030900000F440144CB1B4F5801F0AD0B4F5001F01
:1030A00011D0B4F5401F24D119E000F079FC82461C
:1030B00020E042480C30006800F00200022801D1F4
:1030C0004FF4FA4A16E03D488838006800F4806002
:1030D000B0F5806F01D1DFF8E8A00BE00CE03748D5
:1030E0000830006800F00200022801D14FF4004AC5
:1030F00000E000BF00BF5CE030481430006800F41E
:10310000401434B1B4F5801F07D0B4F5001F4CD182
:1031100022E000F069FC824648E0284888380068D0
:1031200000F00200022815D124488838006800F019
:10313000080028B121488838006800F0F00005E058
:103140001E480C30006800F47060000900091D4939
:1031500051F820A02AE02BE018488838006800F0D9
:103160000070B0F1007F1FD114488838C06800F4A7
:103170008010B0F5801F17D110488838C068C0F3A0
:10318000062605FB06F00D498839C968C1F303110D
:10319000491CB0FBF1F509488838C068C0F34150BC
:1031A000401C4000B5FBF0FA00E000BF00BF00E0AB
:1031B00000BF00BF5046BDE8F08700008810024005
:1031C0000024F40010D300082DE9F843044600253C
:1031D000A846208800F40060B0F5006F32D1E06EA0
:1031E000402809D003DC70B120281BD111E06028F1
:1031F00016D0802816D114E0FE48C06840F4803014
:10320000FC49C86010E00021201D02F02FF905469E
:103210000AE0002104F1200002F0ECF9054603E089
:1032200000BF01E0012500BF00BF55B9F1489C3047
:10323000006820F0E000E16E0843EE49C1F89C0010
:1032400000E0A846208800F48050B0F5805F36D1B9
:10325000206FB0F5007F0CD004DC88B1B0F5807F22
:103260001DD113E0B0F5407F17D0B0F5806F16D1B7
:1032700014E0E048C06840F48030DE49C86010E0E7
:103280000021201D02F0F2F805460AE0002104F1B9
:10329000200002F0AFF9054603E000BF01E0012580
:1032A00000BF00BF55B9D3489C30006820F4E060EF
:1032B000216F0843CF49C1F89C0000E0A846206870
:1032C00000F40030B0F5003F77D14FF00009C94855
:1032D000806D012121EA107078B100BFC548806D72
:1032E00040F08050C34988650846806D00F08050EA
:1032F000009000BF00BF4FF00109BF48006840F4D4
:103300008070BD490860FFF753F8074606E0FFF7F5
:103310004FF8C01B022801D9032505E0B648006814
:1033200000F480700028F2D000BF85BBB148903017
:10333000006800F44076D6B1D4F89400B04216D0BC
:10334000AC489030006820F44076AA48D0F890004D
:1033500040F48030A749C1F890000846D0F89000AA
:1033600020F48030C1F890000846C0F8906006F064
:103370000100A8B1FFF71CF8074609E0FFF718F8AD
:10338000C01B41F28831884202D9032507E017E0CB
:1033900098489030006800F002000028EED000BF8E
:1033A00065B994489030006820F44070D4F89410C7
:1033B00008439049C1F8900003E00CE0A84600E003
:1033C000A846B9F1010F05D18A48806D20F08050E0
:1033D0008849886500BF207800F0010048B1854821
:1033E0008830006820F00300E16B08438149C1F890
:1033F0008800207800F00200022809D17D4888303A
:10340000006820F00C00216C08437A49C1F888005C
:10341000207800F00400042809D17648883000683C
:1034200020F03000616C08437249C1F888002078B0
:1034300000F00800082809D16E488830006820F0A4
:10344000C000A16C08436B49C1F88800207800F0E7
:103450001000102809D167488830006820F44070B7
:10346000E16C08436349C1F88800207800F020002F
:10347000202809D15F488830006820F44060216D21
:1034800008435C49C1F88800208800F40070B0F55A
:10349000007F09D157488830006820F44020616ED1
:1034A00008435449C1F88800208800F48060B0F5D2
:1034B000806F09D14F488830006820F44010A16E19
:1034C00008434C49C1F88800207800F040004028AB
:1034D00009D148488830006820F44050616D0843A5
:1034E0004449C1F88800207800F08000802809D184
:1034F00040488830006820F44040A16D08433D49B1
:10350000C1F88800208800F48070B0F5807F09D170
:1035100038488830006820F44030E16D0843354970
:10352000C1F88800206800F48010B0F5801F09D130
:1035300030489C30006820F00300216E08432D497C
:10354000C1F89C00208800F40050B0F5005F1FD146
:1035500028488830006820F04060616F08432549A2
:1035600088310860606FB0F1006F06D12148C068F3
:1035700040F480101F49C8600AE0606FB0F1806FAE
:1035800006D10121201D01F071FF054605B1A846B5
:10359000206800F40020B0F5002F45D100BFA06FD7
:1035A000B0F5804F08D113489C30006840F480404B
:1035B0001049C1F89C0011E00E489C30006820F4CE
:1035C00080400C49C1F89C000A488830006820F00F
:1035D0004060A16F08430749C1F8880000BFA06F91
:1035E000B0F1006F0AD10348C06840F4801001496F
:1035F000C86019E00010024000700040A06FB0F5F4
:10360000804F06D16348C06840F480306149C8608B
:103610000AE0A06FB0F1806F06D10121201D01F0FA
:1036200025FF054605B1A846206800F48020B0F5C6
:10363000802F1FD157488830006820F04060E16F2C
:103640000843544988310860E06FB0F1006F06D13B
:103650005048C06840F480104E49C8600AE0E06FEE
:10366000B0F1806F06D10121201D01F0FFFE05465B
:1036700005B1A846208800F48040B0F5804F16D1EF
:1036800044488830006820F04050D4F88010084347
:10369000404988310860D4F88000B0F1805F06D1DD
:1036A0000221201D01F0E2FE054605B1A846206872
:1036B00000F48030B0F5803F0AD136489C30006875
:1036C00020F00400D4F8841008433249C1F89C006B
:1036D000206800F40010B0F5001F0AD12D489C307E
:1036E000006820F01800D4F8881008432949C1F870
:1036F0009C00206800F48000B0F5800F2BD1254895
:10370000006820F0805023490860FEF751FE07460C
:1037100006E0FEF74DFEC01B022801D9032505E097
:103720001C48006800F000500028F2D100BF85B9A5
:1037300018489C30006820F44030D4F88C100843BE
:103740001449C1F89C00022104F1200001F052FF4D
:10375000054605B1A846206800F08070B0F1807F72
:1037600015D10C489C30006820F44010D4F890101B
:10377000084308499C310860D4F89000B0F5001F58
:1037800005D10448C06840F480100249C860404632
:10379000BDE8F883001002402DE9F04104460D46D3
:1037A000002714B90120BDE8F0817448006800F0DA
:1037B0000F00A8420ED27148006820F00F00284385
:1037C0006E4908600846006800F00F00A84201D06A
:1037D0000120E8E7207800F00100002873D060683D
:1037E00003282BD16648006800F0007008B901205A
:1037F000D9E701F0C3FF6349884247D96048806830
:1038000000F0F00048B95E48806820F0F00040F019
:1038100080005B498860802738E0207800F0020053
:10382000022833D1A06888BB5548806820F0F0009A
:1038300040F0800052498860802727E060680228B5
:1038400006D14F48006800F4003088B90120AAE78B
:10385000606830B94A48006800F0020040B90120B1
:10386000A1E74748006800F4806008B901209AE7A2
:1038700000F0BAF84349884208D94148806820F0EE
:10388000F00040F080003E49886080273C48806816
:1038900020F003006168084339498860FEF788FD1D
:1038A000064608E0FEF784FD801B41F2883188421D
:1038B00001D9032077E73248806800F00C00616886
:1038C000B0EB810FEED1207800F00200022808D181
:1038D0002B48806820F0F000A168084328498860E0
:1038E00007E0802F05D12648806820F0F0002449A9
:1038F00088602248006800F00F00A8420ED91F48D7
:10390000006820F00F0028431C4908600846006842
:1039100000F00F00A84201D0012044E7207800F019
:103920000400042807D11648806820F4E060E168AC
:10393000084313498860207800F00800082808D15F
:103940000F48806820F46050216940EAC1000C49AA
:10395000886000F049F80A498968C1F303110A4AEE
:10396000515C01F01F01C840084908600848006820
:10397000FEF748FD8046404615E700000020024063
:103980000010024000B4C404F8D20008E015002082
:10399000D81500200148006870470000E01500209D
:1039A00000B5FFF7F7FF05498968C1F30221044A12
:1039B000515C01F01F01C84000BD00000010024032
:1039C00008D3000800B5FFF7E5FF05498968C1F392
:1039D000C221044A515C01F01F01C84000BD000033
:1039E0000010024008D30008F0B500230020DFF8E3
:1039F000D4C0DCF808C00CF00C01DFF8C8C0DCF85B
:103A00000CC00CF0030719B10C291ED1012F1CD1D9
:103A1000DFF8B0C0DCF800C00CF0080CBCF1000FFF
:103A200006D1DFF8A0C0DCF894C0CCF3032305E096
:103A3000DFF890C0DCF800C0CCF30313DFF888C0D7
:103A40005CF8233041B9184606E0042901D11F482B
:103A500002E0082900D11E480C2932D1DFF864C0E9
:103A6000DCF80CC00CF00304012C09D0022C02D0AD
:103A7000032C04D101E0154A04E0154A02E000BF1E
:103A80001A4600BF00BFDFF83CC0DCF80CC0CCF326
:103A9000031C0CF10106DFF82CC0DCF80CC0CCF3E1
:103AA000062C0CFB02FCBCFBF6F2DFF818C0DCF8BD
:103AB0000CC0CCF3416C0CF1010C4FEA4C05B2FB8D
:103AC000F5F0F0BD0010024010D300080024F4000F
:103AD00000127A002DE9F843044614B90120BDE82C
:103AE000F883F948806800F00C07F748C06800F0D8
:103AF0000306207800F01000102876D11FB10C2F9B
:103B000075D1012E73D1F048006800F0020018B1A1
:103B1000A06908B90120E2E7EB48216A006800F0DB
:103B2000080020B1E848006800F0F00005E0E64831
:103B30009430006800F47060000981421FD9206A47
:103B400001F066FE08B10120C9E700BFDE48006849
:103B500040F00800DC4908600846006820F0F000EA
:103B6000216A0843D849086000BF0846406820F42D
:103B70007F40E16940EA0120D34948601EE000BF70
:103B8000D148006840F00800CF4908600846006846
:103B900020F0F000216A0843CB49086000BF0846C6
:103BA000406820F47F40E16940EA0120C64948604E
:103BB000206A01F02DFE08B1012090E7FFF714FF05
:103BC000C1498968C1F30311C04A515C01F01F016A
:103BD000C840BF490860BF480068FEF713FC804634
:103BE000B8F1000F4ED0404679E74BE0FFE7A069FF
:103BF00080B3B548006840F00100B3490860FEF7A3
:103C0000D7FB054606E0FEF7D3FB401B022801D98F
:103C1000032064E7AC48006800F002000028F2D0FE
:103C200000BFA948006840F00800A749086008469E
:103C3000006820F0F000216A0843A349086000BF33
:103C40000846406820F47F40E16940EA01209E492F
:103C5000486017E0FFE79C48006820F001009A499F
:103C60000860FEF7A5FB054606E0FEF7A1FB401B3A
:103C7000022801D9032032E79348006800F00200CF
:103C80000028F2D1207800F0010000285CD0082F35
:103C900003D00C2F0AD1032E08D18B48006800F402
:103CA000003088B3606878BB012018E700BF606807
:103CB000B0F5803F06D18448006840F480308249E6
:103CC00008601AE06068B0F5A02F0BD17E4800684C
:103CD00040F480207C4908600846006840F4803049
:103CE00008600AE07848006820F48030764908606F
:103CF0000846006820F48020086000BF606890B12A
:103D0000FEF756FB054607E01EE0FEF751FB401BA1
:103D1000642801D90320E2E66B48006800F4003013
:103D20000028F2D010E0FEF743FB054606E0FEF760
:103D30003FFB401B642801D90320D0E6624800689D
:103D400000F400300028F2D1207800F002000228B0
:103D500052D1042F03D00C2F14D1022E12D15A4865
:103D6000006800F4806018B1E06808B90120B6E688
:103D70005548406820F0FE40217C40EA01605249ED
:103D8000486039E0E06800B34F48006840F4807054
:103D90004D490860FEF70CFB054606E0FEF708FB00
:103DA000401B022801D9032099E64748006800F427
:103DB00080600028F2D04448406820F0FE40217C1A
:103DC00040EA01604049486016E03F48006820F43E
:103DD00080703D490860FEF7EBFA054606E0FEF705
:103DE000E7FA401B022801D9032078E6364800682C
:103DF00000F480600028F2D1207800F00800082844
:103E000036D16069D0B130489430006840F001008C
:103E10002D49C1F89400FEF7CBFA054606E0FEF7FF
:103E2000C7FA401B022801D9032058E626489430DF
:103E3000006800F002000028F1D019E02248943018
:103E4000006820F001002049C1F89400FEF7B0FAA4
:103E5000054606E0FEF7ACFA401B022801D9032014
:103E60003DE619489430006800F002000028F1D1C6
:103E7000207800F00400042873D14FF000091248A4
:103E8000806D00F0805078B900BF0F48806D40F021
:103E900080500D4988650846806D00F08050009084
:103EA00000BF00BF4FF001090B48006800F48070AC
:103EB00008BB0948006840F4807007490860FEF7B5
:103EC00077FA054611E0000000100240F8D2000821
:103ED000E0150020D815002000700040FEF768FAB9
:103EE000401B022801D90320F9E5B748006800F417
:103EF00080700028F2D000BFA068012808D1B34824
:103F0000006840F00100B1499039C1F8900021E00B
:103F1000A06805280FD1AD48006840F00400AB4907
:103F20009039C1F890000846D0F8900040F00100A8
:103F3000C1F890000EE0A548006820F00100A349F8
:103F40009039C1F890000846D0F8900020F00400A5
:103F5000C1F8900000BFA068A0B1FEF729FA05469D
:103F600009E02EE0FEF724FA401B41F28831884236
:103F700001D90320B3E59548006800F0020000284D
:103F8000F0D012E0FEF714FA054608E0FEF710FA4A
:103F9000401B41F28831884201D903209FE58B48BC
:103FA000006800F002000028F0D1B9F1010F07D13C
:103FB00086489038806D20F080508449903988651B
:103FC00000BF207800F02000202838D1606AD8B1E6
:103FD0007E480830006840F001007C499039C1F803
:103FE0009800FEF7E5F9054606E0FEF7E1F9401B0B
:103FF000022801D9032072E574480830006800F0F7
:1040000002000028F1D01AE070480830006820F063
:1040100001006E499039C1F89800FEF7C9F90546CC
:1040200006E0FEF7C5F9401B022801D9032056E53A
:1040300066480830006800F002000028F1D1A06A4C
:1040400000285BD00C2F78D0A06A022857D15F4897
:104050009038006820F080705C4990390860FEF765
:10406000A7F9054606E0FEF7A3F9401B022801D98F
:10407000032034E555489038006800F000700028AF
:10408000F1D1D4E90B10401E41EA0011606B41EA06
:104090000021A08F0122C2EB500041EA4051402094
:1040A000005DC2EB500041EA40613820005D41EA0A
:1040B000C06046499039C968454A114008434349A0
:1040C0009039C8600846006840F080700860084673
:1040D000C06840F08070C860FEF76AF9054606E0E7
:1040E000FEF766F9401B022801D90320F7E43748A0
:1040F0009038006800F000700028F1D061E033488B
:104100009038006820F08070304990390860084687
:10411000006800F0205020B90846C06820F0030075
:10412000C8602A489038C0682A4908402749903911
:10413000C860FEF73DF9054607E00EE0FEF738F9E6
:10414000401B022801D90320C9E4204890380068A8
:1041500000F000700028F1D133E0A06A012800D1FE
:10416000BDE41A489038C66806F00301E06A81424F
:1041700025D106F0F001206B401EB1EB001F1ED1CF
:1041800006F4FE41606BB1EB002F18D106F07841C8
:104190003820005DB1EBC06F11D106F4C001A08FD3
:1041A0000122C2EB5000B1EB405F08D106F0C061C4
:1041B0004020005DC2EB5000B1EB406F01D0012008
:1041C0008DE400208BE4000000700040901002405D
:1041D0000C809D01FFFFEEFE4FF0E020006940F0F3
:1041E00002004FF0E0210861704770477047704748
:1041F00070470000F0B589B004460E460027032042
:1042000084F83400E06B032820D0B6F5004F04D1C9
:10421000A06B40F08050A0631CE0B6F5804F07D142
:10422000204602F0AFFE0546A06B2843A06311E0D4
:104230003EB9204602F072FE0546A06B2843A063FB
:1042400008E0A06B40F00060A06303E0A06B40F0CA
:104250008050A063A06B20B11F48216888630127AC
:1042600025E060680390A068049005962069069098
:104270006069032802D3606907900FE0E06DB0F534
:10428000007F02D16069079008E0E06DB0F5807FA3
:1042900002D10220079001E00320079006A807C87A
:1042A0008DE80700206803A90EC902F02FFB4FF428
:1042B0000071206801F029FF054635B106482168E4
:1042C0008863A06B2843A0630127012084F8340091
:1042D000384609B0F0BD0000FF0FE01F7047000036
:1042E00010B50246106E800F0870106EC0F3836028
:1042F0004870106EC0F301608870106E000CC870BA
:10430000B2F86000000A087192F860004871506EBF
:10431000000DC880506EC0F3034008726420805ABC
:10432000C0F3C03048726420805AC0F38030887275
:104330006420805AC0F34030C8726420805AC0F3B1
:104340000030087300204873D06B002836D16420F9
:10435000805A8005030D906E43EA90700861906E5C
:10436000C0F3C2600875906EC0F302604875906E2D
:10437000C0F342508875906EC0F38240C875906E4D
:10438000C0F3C23008760869401CD0640B7ED06C44
:1043900003F007039B1C01249C406043D064087A0F
:1043A00000F00F03012098401065D2E913035B0A67
:1043B000584350654FF40073936521E0D06B01289A
:1043C00013D16420805C8006830A906E43EA10401B
:1043D00008610869401C8302D364D36C53654FF4B1
:1043E00000731365136D93650AE02E481368986394
:1043F000906B40F080509063012082F8340010BD33
:104400006820805AC0F3803001F8190F6820805A64
:10441000C0F3C61048706820805C00F07F00887090
:10442000D06EC00FC870D06EC0F341700871D06EEE
:10443000C0F382604871D06EC0F383508871D06E33
:10444000C0F34050C87100200872D06EC0F3004025
:1044500048726C20805AC0F3C03088726C20805A39
:10446000C0F38030C8726C20805AC0F340300873AB
:104470006C20805AC0F3003048736C20805AC0F31F
:10448000812088736C20805AC0F30120C8736C208F
:10449000805CC0F34600087401204874193900207C
:1044A000ADE70000FF0FE01F0246D06B0860106C04
:1044B0004860506C8860906CC860D06C0861106D6A
:1044C0004861506D8861906DC86100207047F8B5F3
:1044D0000446002000906946204602F007FD05468C
:1044E00015B1A06B2843A0630098C0F34326304663
:1044F000F8BD0000F0B591B005460C46002701A9B3
:10450000284602F05FFC064656B1304829688863A9
:10451000A86B3043A863012085F83400012743E0ED
:104520000198C0F3811020700198C0F340106070B2
:10453000019800F47F00000A019940EA1160608050
:1045400002980006029901F47F4140EA0120029995
:1045500001F47F0140EA1120029940EA1160606095
:10456000039820720398000A60720398C0F3035006
:10457000A0720498C0B2039901F07F4140EA114053
:10458000A0810498C0F38520A0730498C0F3012093
:10459000E0730498C0F303102074049800F00F0037
:1045A00060740598000EA0744FF40071286801F043
:1045B000ACFD06463EB1054829688863AE6301201C
:1045C00085F834000127384611B0F0BDFF0FE01F19
:1045D00070B50446256B2068406BC0F3C03030B125
:1045E00005F0080018B1204602F0C6FB26E120685D
:1045F000406BC0F30020002876D04FF48070216813
:1046000088632068C06B4CF23A1188432168C86304
:104610002068C06B20F080502168C8632068C068A3
:1046200020F040002168C86005F0080030B305F0B4
:10463000020010B905F0200050B1206801F0CEFE54
:1046400006462EB1A06B3043A0632046FFF746FE1E
:104650007B4821688863012084F8340000202063AF
:1046600005F0010010B905F0020018B1204600F075
:1046700052FBE3E0204600F053FBDFE005F0800052
:104680000028B3D00020216888622168C8622168B0
:10469000086505F0020010B905F0200050B120684F
:1046A00001F09CFE06462EB1A06B3043A06320466D
:1046B000FFF714FE012084F834000020206305F089
:1046C000100010B905F0200010B1204600F028FBC2
:1046D00005F0010018B905F00200002886D0204638
:1046E00000F019FBAAE0FFE72068406BC0F38030C0
:1046F00030B105F0080018B1204602F077FC9DE0CB
:104700002068406B00F03A0008B1012000E0002072
:10471000002870D02068406BC0F3400018B1A06B37
:1047200040F00200A0632068406BC0F3C00018B1E5
:10473000A06B40F00800A0632068406BC0F34010FD
:1047400018B1A06B40F02000A0632068406BC0F35C
:10475000001018B1A06B40F01000A0633848216829
:1047600088632068C06B20F49D702168C86320684E
:10477000C06820F040002168C8602068C06A40F42A
:1047800000502168C8622068C06840F0800021683D
:10479000C860206801F022FEA16B0843A063206876
:1047A000C06820F080002168C8604FF40060216874
:1047B000886305F0080040B1012084F8340000202F
:1047C00020632046FFF78AFD38E005F0800030B313
:1047D000A06B20B32068C06B20F080502168C863B4
:1047E000002021680865012084F834002046FFF786
:1047F00075FD23E0FFE72068406BC0F3007070B1E7
:104800004FF08050216888632068006D00F004003C
:1048100050B905F0200018B12046FFF7E9FC0DE083
:104820002046FFF7E3FC09E005F0200018B1204620
:10483000FFF7DDFC02E02046FFF7D7FC70BD00006B
:104840003A0F0018F0B585B0044614B9012005B040
:10485000F0BD94F8340020B900202077204600F005
:10486000C3F8032084F83400204600F045F808B16E
:104870000120ECE769462046FFF73CFE08B1012025
:10488000E5E79DF810609DF81170E06B012805D1F7
:1048900006B91FB14FF40071E16507E0E06B012834
:1048A00002D10102E16501E00021E1652046E168F5
:1048B000FFF7A0FC08B10120C9E7FDF779FD054627
:1048C0000CE0FDF775FD401B401C38B94FF000406F
:1048D000A063012084F834000320B8E72046FFF7E6
:1048E000F6FD0428EDD10020A0632063012084F8A8
:1048F00034000020ABE700002DE9F0418AB0044607
:10490000002004900590069007904FF40020FDF7DA
:1049100033FF074647B9012084F83400C006A0637E
:1049200001200AB0BDE8F0812C48B7FBF0F00890F8
:10493000A069012805D12068006840F010002168B6
:10494000086007A807C88DE80700206804A90EC9F9
:1049500001F0DCFF06460EB10120E2E7206801F01D
:10496000EFFF06460EB10120DBE708984000B7FBD9
:10497000F0F71B48B0FBF7F000F101084046FDF7E7
:1049800003FC204602F032F905463DB1012084F8CF
:104990003400A06B2843A0630120C2E7204602F048
:1049A000AFF805463DB1012084F83400A06B2843E0
:1049B000A0630120B5E74FF40071206801F0A5FB6A
:1049C00005464DB1074821688863A06B2843A06362
:1049D000012084F83400A4E70020A2E700350C0091
:1049E00010210100FF0FE01F10B586B0044614210E
:1049F00001A8FBF754FC3149206888425BD100BF15
:104A00002F48C06C40F480002D49C8640846C06C33
:104A100000F48000009000BF00BF00BF0846C06CDB
:104A200040F00400C8640846C06C00F00400009028
:104A300000BF00BF00BF0846C06C40F00800C8645B
:104A40000846C06C00F00800009000BF00BF4FF4A3
:104A500070600190022002900120039003200490D6
:104A60000C20059001A91748FDF7A2FB4FF48050D8
:104A700001900220029000200390032004900C205B
:104A8000059001A90F48FDF793FB04200190022037
:104A9000029001200390032004900C20059001A9AE
:104AA0000948FDF785FB002211463120FDF70AFD7C
:104AB0003120FDF7F3FC06B010BD000000240650C5
:104AC0000010024000080048000C00482DE9FF4F8C
:104AD00089B004468A469946FDF76AFC0290DDF8E3
:104AE0002CB05546BAF1000F07D1A06B40F0006022
:104AF000A06301200DB000F00BB994F83400012838
:104B00007ED10020A0630BEB0901606D814205D9C5
:104B1000A06B40F00070A0630120EBE7032084F855
:104B2000340000202168C862E06B012801D04FEA00
:104B30004B2B4FF0FF3003904FEA49200490902018
:104B400005900220069000200790089003A9206895
:104B500001F0C5FC2068C06840F040002168C860D2
:104B6000B9F1010F07D9022020635946206801F0EE
:104B700035FB064606E0012020635946206801F017
:104B80004AFB064666B1604821688863A06B3043E3
:104B9000A063012084F83400002020630120A9E7ED
:104BA000DDF8108040E02068406B00F4004010B356
:104BB000B8F1000F1FD00020019019E0206801F02B
:104BC000CAFE07462F706D1CA8F10108380A28702C
:104BD0006D1CA8F10108380C28706D1CA8F10108A3
:104BE000380E28706D1CA8F101080198401C019036
:104BF00001980828E2D3FDF7DBFB0299411A00E097
:104C00007CE01698814201D2169868B93E48216826
:104C10008863A06B40F00040A063012084F834005A
:104C200000202063032065E72068406B00F4957046
:104C30000028B8D02068C06820F040002168C86013
:104C40002068406B00F48070B8B1B9F1010F14D93D
:104C5000E06B032811D0206801F0C0FB064666B166
:104C6000294821688863A06B3043A063012084F841
:104C700034000020206301203CE72068406B00F0F6
:104C8000080068B1204821688863A06B40F00800E4
:104C9000A063012084F8340000202063012029E76C
:104CA0002068406B00F0020068B1174821688863F3
:104CB000A06B40F00200A063012084F834000020C3
:104CC0002063012016E72068406B00F0200068B1E7
:104CD0000D4821688863A06B40F02000A06301208C
:104CE00084F8340000202063012003E7074821688E
:104CF0008863012084F834000020FBE6A06B40F0BC
:104D00000050A0630120F5E6FF0FE01F3A0F0018E6
:104D100030BCBDE8C08F10B50446FDF717F810BDD4
:104D200010B50446FDF740F810BD00002DE9F04F26
:104D300089B00446894693469846FDF739FB0290B0
:104D4000DA464D46B9F1000F07D1A06B40F0006084
:104D5000A063012009B000F00DB994F834000128D7
:104D60007ED10020A0630AEB0801606D814205D965
:104D7000A06B40F00070A0630120EBE7032084F8F3
:104D8000340000202168C862E06B012801D04FEA9E
:104D90004A2A4FF0FF3003904FEA482004909020B9
:104DA0000590002006900790089003A9206801F064
:104DB00096FB2068C06840F040002168C860B8F1E8
:104DC000010F07D9202020635146206801F04DFBD8
:104DD000064606E0102020635146206801F062FB81
:104DE000064666B1614821688863A06B3043A063C2
:104DF000012084F83400002020630120AAE7049FEA
:104E000043E02068406B00F4804030B32FB30020B3
:104E100001901FE0287800906D1C7F1E2878009973
:104E200041EA002000906D1C7F1E2878009941EA1D
:104E3000004000906D1C7F1E2878009941EA0060B8
:104E400000906D1C7F1E6946206801F09FFD01984F
:104E5000401C019001980828DCD3FDF7A9FA00E076
:104E60007DE00299411A1298814201D2129860B9EC
:104E70003E4821688863A06B3043A063012084F81A
:104E8000340000202063032064E72068406B00F4B6
:104E90008D700028B5D02068C06820F040002168DF
:104EA000C8602068406B00F48070B8B1B8F1010FA1
:104EB00014D9E06B032811D0206801F08FFA064660
:104EC00066B12A4821688863A06B3043A063012043
:104ED00084F834000020206301203BE72068406B09
:104EE00000F0080068B1214821688863A06B40F099
:104EF0000800A063012084F8340000202063012012
:104F000028E72068406B00F0020068B1174821686C
:104F10008863A06B40F00200A063012084F8340095
:104F200000202063012015E72068406B00F010008E
:104F300068B10E4821688863A06B40F01000A06340
:104F4000012084F8340000202063012002E7084893
:104F500021688863012084F834000020FAE6A06B01
:104F600040F00050A0630120F4E60000FF0FE01FB6
:104F70003A0F001830BCBDE8C08F00002DE9F043A7
:104F800087B004460F4691461D46C8463FB9A06B00
:104F900040F00060A063012007B0BDE8F08394F802
:104FA000340001285BD10020A06308EB0501606D8F
:104FB000814205D9A06B40F00070A0630120EBE7AF
:104FC000032084F8340000202168C8622762680248
:104FD0006062E06B012801D04FEA48284FF0FF30B3
:104FE00001906802029090200390002004900590A8
:104FF000069001A9206801F072FA2068C06840F0AC
:1050000040002168C8602068876501202168086524
:10501000012D07D9A02020634146206801F025FA20
:10502000064606E0902020634146206801F03AFAE7
:10503000064666B10B4821688863A06B3043A063C5
:10504000012084F83400002020630120A4E72068B8
:10505000C06B40F48D702168C86300209CE702207B
:105060009AE70000FF0FE01F70B504462546681E52
:10507000B0F1807F01D301200FE0681E4FF0E021E6
:1050800048610F214FF0FF3002F024F900204FF06B
:10509000E021886107200861002070BD4FF0E0200A
:1050A000006920F002004FF0E0210861704700BF66
:1050B000FEE700001348006840F002001149086054
:1050C000114800682421B0FBF1F201FB120090B9F5
:1050D0000E48006840F400500C49086000BF0C48BE
:1050E000806820F000500A4988600846806840F0D7
:1050F0008050886000BF04480068401C0249086076
:1051000070470000047C00409C15002004540040BF
:10511000000004500948006840F002000749086098
:105120000748006840F40050054908600548806859
:1051300040F001000349886070470000049400407B
:1051400004540040000004502F48C06900F0006083
:1051500048B32E48006858B92D48006840F0020056
:105160002B4908602848806820F4000026498860A0
:1051700010E0264800680078234908852348006825
:1051800000780A2801D1002002E020480068401C75
:105190001E4908601D48006828B11B48C06900F01E
:1051A00080000028E5D11848C06900F0806050B345
:1051B00023E01548808CC1B2164802680068401C84
:1051C000144B18601448815419460868C11700EB45
:1051D00091618911A0EB81111A4611601046006897
:1051E000401E0D49085C0A2807D10A2110460268B2
:1051F0000068401C1860084881540348C06900F0EA
:1052000020000028D5D17047008000400C130020FA
:1052100008130020B0150020307B002008B500BF27
:105220002348806C40F00400214988640846806C63
:1052300000F00400009000BF00BF00BF0846806C73
:1052400040F0010088640846806C00F00100009086
:1052500000BF00BF00BF0846806C40F002008864B9
:105260000846806C00F00200009000BF00BF0122E1
:1052700011460B20FDF726F90B20FDF70FF9002250
:1052800011465E20FDF71EF95E20FDF707F90122A9
:1052900003213820FDF716F93820FDF7FFF8022228
:1052A00003213920FDF70EF93920FDF7F7F808BD85
:1052B0000010024010B503490348FCF731FF0349D1
:1052C000087010BDB9150020E4D20008B815002000
:1052D00008480949086000204860002106488160AC
:1052E0004FF48041C160C9000161002141618161C9
:1052F0007047000000240650387C002000BFFEE705
:1053000070477047F0B505460E4600200021002486
:10531000B5F5006F07D1524F3F6807F0E0016029F3
:105320000CD150480AE0B5F5805F07D14C4F3F687B
:1053300007F4E061B1F5407F00D14A4800282BD145
:105340003246402902D0B1F5007F26D1444F9C3F20
:10535000FF6807F48037002F1ED0414F9C3FFF6845
:10536000C7F303177F1CB2FBF7F23D4F9C3FFF686A
:10537000C7F306233A4F9C3FFF68FC0E44B9384FF1
:105380009C3FFF6807F400370FB1112400E00724A9
:1053900002FB03F7B7FBF4F060E031BB304F9C3FFA
:1053A0003F6907F48037002F58D02D4F9C3F3F694D
:1053B000C7F303177F1CB2FBF7F2294F9C3F3F69ED
:1053C000C7F30623264F9C3F3F69FC0E44B9244F88
:1053D0009C3F3F6907F400370FB1112400E0072418
:1053E00002FB03F7B7FBF4F038E0802902D0B1F5F7
:1053F000806F09D11A4F9C3F3F6807F48067B7F56B
:10540000806F2BD1184829E0202902D0B1F5807F88
:1054100024D1134F9C3F7F6907F48037F7B1104FB9
:105420009C3F7F69C7F303177F1CB2FBF7F20C4F59
:105430009C3F7F69C7F30623094F9C3F7F69FC0EA1
:1054400044B9074F9C3F7F6907F400370FB111241F
:1054500000E0072402FB03F7B7FBF4F0F0BD000007
:105460009C10024068FF1F000024F4002DE9F04169
:1054700004460F4600255B48C06800F0030050B1A9
:105480005848C06800F003002168884201D12068B4
:1054900078BB01252DE02068012804D0022809D01E
:1054A00003281AD10DE04F48006800F0020000B94F
:1054B000012514E04B48006800F4806000B9012524
:1054C0000DE04848006800F4003028B945480068FD
:1054D00000F4802000B9012501E0012500BF00BFD4
:1054E0003DB94048C06820F00300216808433D49A9
:1054F000C860002D73D13B48006820F080603949B6
:105500000860FCF755FF064606E0FCF751FF801BDC
:10551000022801D9032505E03248006800F0006048
:105520000028F2D100BF002D59D187B9A068000230
:10553000217B40EAC1616068401E41EA00102949B0
:105540000969294A114008432649086128E0012FCA
:1055500013D1A0680002218A0122C2EB510140EA66
:1055600041516068401E41EA00101E4909691F4A06
:10557000114008431B49086112E0A0680002217D28
:105580000122C2EB510140EA41616068401E41EADC
:10559000001014490969164A11400843114908616D
:1055A0001048006840F080600E490860FCF700FF7A
:1055B000064606E0FCF7FCFE801B022801D9032505
:1055C00005E00848006800F000600028F2D000BF45
:1055D0002DB904480069A1690843024908612846B9
:1055E000BDE8F081001002400F80FF070F809FFF91
:1055F0000F80FFF92DE9F04104460F4600255B4876
:10560000C06800F0030050B15848C06800F00300C3
:105610002168884201D1206878BB01252DE02068EF
:10562000012804D0022809D003281AD10DE04F48E0
:10563000006800F0020000B9012514E04B48006842
:1056400000F4806000B901250DE04848006800F4CE
:10565000003028B94548006800F4802000B90125D1
:1056600001E0012500BF00BF3DB94048C06820F0FF
:105670000300216808433D49C860002D73D13B48B1
:10568000006820F0805039490860FCF791FE06461A
:1056900006E0FCF78DFE801B022801D9032505E0FA
:1056A0003248006800F000500028F2D100BF002D01
:1056B00059D187B9A0680002217B40EAC1616068C6
:1056C000401E41EA001029494969294A114008430E
:1056D0002649486128E0012F13D1A0680002218AE1
:1056E0000122C2EB510140EA41516068401E41EA8B
:1056F00000101E4949691F4A114008431B4948616F
:1057000012E0A0680002217D0122C2EB510140EAB3
:1057100041616068401E41EA001014494969164A17
:1057200011400843114948611048006840F080501A
:105730000E490860FCF73CFE064606E0FCF738FE22
:10574000801B022801D9032505E00848006800F005
:1057500000500028F2D000BF2DB904484069A1696B
:105760000843024948612846BDE8F0810010024024
:105770000F80FF070F809FFF0F80FFF970B5002299
:105780001F4EF66806F00306012E11D11C4E366836
:1057900006F008062EB91A4E94363668C6F3032270
:1057A00003E0174E3668C6F30312164E56F8222051
:1057B000134EF66806F00303012B09D0022B02D02A
:1057C000032B04D101E0104904E0104902E000BFBE
:1057D000114600BF00BF0A4EF668C6F30316751CDB
:1057E000074EF668C6F306264E43B6FBF5F1044EA7
:1057F000F668C6F34166761C7400B1FBF4F070BD28
:105800000010024010D300080024F40000127A00B7
:10581000F8B5044600262148806D00F0805018B18C
:10582000FCF766FF054616E000BF1C48806D40F09F
:1058300080501A4988650846806D00F080500090BD
:1058400000BF00BFFCF754FF05461448806D20F0F0
:10585000805012498865B5F5007F07D1802C0CD99E
:10586000A02C01D9022608E0012606E0802C01D3F5
:10587000022602E0702C00D101260948006820F0C1
:105880000F003043064908600846006800F00F002A
:10589000B04201D00120F8BD0020FCE7001002401A
:1058A0000020024010B5012211026848FCF77AFD81
:1058B000002202214FF09040FCF774FD0120FCF71C
:1058C00063FC012202214FF09040FCF76BFD322077
:1058D000FCF75AFC012211025C48FCF763FD01222F
:1058E00004215B48FCF75EFD0120FCF74DFC4FF006
:1058F0009040406920F004004FF0904148615548C5
:105900000068554908435549C1F800010A2051492A
:10591000103108601C20514988640120086500BFCF
:105920004E48006A00F020000028F9D14FF0904066
:10593000406940F004004FF0904148610120FCF7BD
:1059400023FC4FF09040406920F004004FF090415C
:1059500048611820414988640C20086500BF3F4811
:10596000006A00F020000028F9D14FF09040406913
:1059700040F004004FF0904148610120FCF704FC26
:105980004FF09040406920F004004FF09041486192
:105990001120324988646920086500BF2F48006AD9
:1059A00000F020000028F9D14FF09040406940F00D
:1059B00004004FF0904148610120FCF7E5FB4FF0F7
:1059C0009040406920F004004FF090414861102061
:1059D000224988640220086500BF2048006A00F060
:1059E00020000028F9D14FF09040406940F00400B9
:1059F0004FF090414861002204211548FCF7D2FC89
:105A00001648006840F080501449086041F20700D1
:105A1000086410480830006840F00500C1F808012B
:105A20004FF04070C1F800010846006840F00400E3
:105A300008600B48806840F001000949886003480D
:105A4000406940F400700149486110BD00100048F1
:105A500000040048001100A001010001001000A096
:105A60000000024008B500BF3348C06C40F400504D
:105A70003149C8640846C06C00F40050009000BF73
:105A800000BF2E48806820F000502C4988600846EE
:105A9000806840F0805088600120FCF775FB274843
:105AA000806840F000402549886000BF2348806836
:105AB00000F000400028F9D12048B430006800F020
:105AC0007F001F4908800120FCF75EFB1B48D0F8CF
:105AD00008031C4908431949C1F8080308468068AF
